:020000040000FA
:0600000056EF11F01200A2
:0A000600010036230000880100000D
:0400100012000000DA
:0C00140046EC05F0FB0EDBCFF3FFDB0633
:10002000F35000090AE094EC05F0FA0EFFEC05F03D
:10003000F3E1151CF1E1010E01D0000E75EF05F0A2
:1000400046EC05F03B0EE12402E3E168E652E16E86
:10005000010EDB6A020EDB6AF90EDBCFF6FFFA0E49
:10006000DBCFF7FFFB0EDBCFF8FF0800F550DF6EAC
:10007000DF5002E199EF04F0250EDF5C02E08CEF27
:1000800004F0030EDB6A040EDB6A050EDB6A060E63
:10009000DB6A070EDB6AAEEC04F02D0EDF5C0CE0D1
:1000A0002B0EDF5C09E0200EDF5C06E0230EDF5C38
:1000B00003E0300EDF5C1AE1DF50300A14E0130A6F
:1000C0000FE0030A0AE00B0A05E0060AE4E1030E6A
:1000D000DB80E1D7030EDB82DED7030EDB84DBD7C8
:1000E000030EDB86D8D7030EDB88D5D72A0EDF5C5C
:1000F0001BE1AAEC04F0F8EC04F010E0030EDB8046
:1001000008680968130EDBCF0DF0140EDBCF0EF07C
:10011000DDEC0EF0040E06C0DBFF03D0130EE1ECA5
:1001200004F0AEEC04F00BD0090EDB6A4FEC05F0E6
:1001300003E0C3EC05F0FAD7090EE1EC04F0030E7E
:10014000DBB0DB982E0EDF5C1BE1AEEC04F02A0E78
:10015000DF5C0BE1AAEC04F0F8EC04F003E1130E11
:1001600033EC05F0AEEC04F00BD0090EDB6A4FEC7B
:1001700005F003E0C3EC05F0FAD7090E33EC05F007
:10018000680EDF5C07E1AEEC04F0680EDF5C1DE199
:10019000030E18D0740EDF5C17E07A0EDF5C14E0FB
:1001A000480EDF5C06E0540EDF5C03E05A0EDF5CB5
:1001B00002E1020E07D06C0EDF5C03E06A0EDF5C2A
:1001C00004E1010E86EC05F0C9DBDF506E0A01E1A7
:1001D0007FD31E0A01E192D1200A01E18FD13F0AAB
:1001E00001E149D11A0A01E146D10D0A01E143D1E9
:1001F000200A01E140D13A0A01E13DD1200A01E1A2
:100200003AD1260A01E135D10D0A01E132D11A0AAB
:1002100001E1D9D0200A4AE0300A1FE0460A0EE088
:10022000250A01E083D3D950F90FE96EFF0EDA20D9
:10023000EA6E010EEE5E000EEE5AEE5A94EC05F0F8
:10024000250EE66E95DB03E1151C01E169D390EC08
:1002500005F001E26BD3DB2A69D3080EDB6A040EDA
:10026000DB50010806E2040EDB0458EC05F0DB501D
:100270008BDB080EDB5009E0030EDB50010B05E1C0
:1002800072DB01E04DD3080EDB6A64DBEFCFDFFFEA
:1002900008EC06F003E1151C01E142D390EC05F0F7
:1002A00001E3DB2A60DB01E141D33AD3070EDB50E7
:1002B00002080FE1D4EC05F0030E9BEC05F00E0EE6
:1002C000EECFDBFF0F0EEECFDBFF100EEECFDBFF2E
:1002D00020D0F70EDBCF17F0F80EDBCF18F0020EB0
:1002E000175E000E185AF70E17C0DBFFF80E18C085
:1002F000DBFF17C0E9FF18C0EAFF8BEC05F0166AB8
:100300000E0E14C0DBFF0F0E15C0DBFF100E16C063
:10031000DBFF0E0EDBCFE6FF0F0EDBCFE6FF100E8E
:10032000DBCFE6FF6EEC10F0E552E552E552130E1E
:1003300007C0DBFF140E08C0DBFF060EDB5005E034
:10034000130ECFEC05F001E26ADBF3EC05F002E2FC
:10035000130E37DBB6EC05F006E0040ECFEC05F02B
:1003600002E2050E2EDB030EDBB005D0FCDA01E065
:10037000D7D2080EDB6A090EDB6A0E0EDBCFF6FF62
:100380000F0EDBCFF7FF100EDBCFF8FF0800F550A4
:10039000DF6EDF5014E0F9EC05F011E208EC06F036
:1003A00003E1151C01E1BCD2BBDB01E3DB2A090E32
:1003B000DB2AD9500E0FE96E000ECBDBE7D7D3DA7C
:1003C00001E1B4D2ADD2C6DA110EEECFDBFF120ED0
:1003D000EDCFDBFF110EDBCFE6FF120EDBCFE6FF2A
:1003E00060EC10F0E552E552130EF3CFDBFF140E74
:1003F000F4CFDBFF060EDB5004E0130ED0DB01E28E
:100400000EDBF3EC05F002E2130EDBDAAFDB05E006
:10041000040EC5DB02E2050ED4DA030EDBB005D014
:10042000A2DA01E07DD2080EDB6A090EDB6A110E4A
:10043000DBCFE9FF120EDBCFEAFFEFCFDFFFDF50AC
:1004400014E0D7DB12E2E4DB03E1151C01E168D222
:1004500067DB01E3DB2A090EDB2A110EDB2ADBCF87
:10046000E9FF120EE8E3DB2AE6D77DDA01E15ED28E
:1004700057D2030EDB8E070EDB0410E195DB040E72
:100480005ADB0A0EEECFDBFF0B0EEECFDBFF0C0EBE
:10049000EECFDBFF0D0EEECFDBFF6CD0070EDB5097
:1004A00003082CE1030EDBAE0DD0B2DA020E76DAD1
:1004B000EFCF14F0156A166A176A14AE39D01568B2
:1004C000166835D0F70EDBCF15F0F80EDBCF16F03F
:1004D000020E155E000E165AF70E15C0DBFFF80E61
:1004E00016C0DBFF15C0E9FF16C0EAFFEFCF14F01E
:1004F0000A0E14C0DBFF0B0EDB6A38D0070EDB5090
:10050000020809E1030EDBAE04D059DB16AE10D0B1
:100510000ED055DB0DD0030EDBAE12D079DA020E11
:100520003DDAF9DA166A176A15AE02D0166817684E
:10053000E2DA0C0E16C0DBFF0D0E17C0DBFF1AD07F
:10054000F70EDBCF16F0F80EDBCF17F0020E165EBB
:10055000000E175AF70E16C0DBFFF80E17C0DBFFB0
:1005600016C0E9FF17C0EAFFD6DAC5DA0C0EDB6A5F
:100570000D0EDB6A060EDB5005E1010EF36E050E73
:10058000F3CFDBFF150EDB6A160EDB6AD950370F8F
:10059000146E000EDA20156E390E14C0DBFF3A0E11
:1005A00015C0DBFF380EDB6A080EDB6A0A0EAEDA16
:1005B000DF50780A12E0200A10E0280A0CE0200A36
:1005C0000AE03F0A06E00D0A02E0200A08E1020EF6
:1005D00005D0080E03D0080EDF26100E97DA030EA2
:1005E000DBBE02D0DB92DB94DB50800B24E08ADAA6
:1005F000D890030EEB50000A08E6000EEE5C000EE9
:10060000EE58000EEE58000EEE5815E213DA0B68A5
:100610000C680D680E68F1EC0FF00A0E02C0DBFFEB
:100620000B0E03C0DBFF0C0E04C0DBFF0D0E05C07C
:10063000DBFF2D0E08D0030EDBA202D02B0E03D061
:10064000DBA408D0200EF36E170EF3CFDBFF150EE0
:10065000DB2A02D0170EDB6A050EDB5003E1B7D9A7
:1006600001E189D0120E146E230E156E000E166E67
:10067000070EDBCF17F0186A196A1A6A17C00BF059
:1006800018C00CF019C00DF01AC00EF0D3D9BCEC94
:1006900010F014500224F36E15500320F46E16501F
:1006A0000420F86EF4CFF7FFF3CFF6FF0800090E31
:1006B000F5CFDBFF580EDF5C0FE1610EF36E090E24
:1006C0007BD90AE3200E146E090EDBCFE7FF14502E
:1006D000E75E090EE7CFDBFF070EDBCF14F0156AEC
:1006E000166A176A0FDA14C00BF015C00CF016C0AA
:1006F0000DF017C00EF0EECF06F0EECF07F0EECF04
:1007000008F0EFCF09F0BCEC10F009C0EDFF08C015
:10071000EDFF07C0EDFF06C0EFFF390EDBCFE9FFAD
:10072000DB063A0EDBCFEAFF01E2DB06090EDBCF88
:10073000EFFF150EDB2A4BD995E1030EDBA61DD08A
:100740006F0EDF5C06E1C1D918E3150EDB285BDA1A
:1007500014D0780EDF5C09E0580EDF5C06E0620E14
:10076000DF5C03E0420EDF5C08E1020EF36E160E62
:10077000F3CFDBFF02D0150EDB6A030EDB50100B4C
:100780000EE0040EDBCF14F0050EDB50D8801454BD
:1007900006E2060EDB5003E1040EDB5034DA95D995
:1007A0000AE2050EDBCFE7FF150EDB50E75E050E14
:1007B000E7CFDBFF02D0050EDB6A040EDBCF14F0BF
:1007C000160E45D9D880145414E2160EDBCFE6FF7E
:1007D000150EDBCFE6FF040EDBCFE6FF050EDB5088
:1007E000E552E75CE552D880E754E552D880E754FB
:1007F0005FD9030EDB50010B0BE1080EDB5008E064
:10080000B2D801E08DD0080EDB50BED8080EDB6AEE
:10081000170EDB5007E088D9170EF1D903E1151C3C
:1008200001E17ED0160EDB5016E07ED9300EE66E6A
:100830009FD802E1151C74E077D9DFCFE6FFAFEC5B
:100840000FF0E552E552E552F4CF15F00001F31C2C
:1008500002E1151C65E0050EDBCF14F0160EDB502F
:10086000D880145409E2050EDBCFE7FF160EDB50EB
:10087000E75E050EE7CFDBFF300EE66E050ECBD947
:100880004FE1390EDB2ADBCFE9FF3A0E01E3DB2A29
:10089000DBCFEAFF090EEFCFDBFFDB500EE044D9E0
:1008A000090EADD902E1151C3BE0390EDB2ADBCF86
:1008B000E9FF3A0EEDE3DB2AEBD755D831E1160E0E
:1008C000DBCFE6FF080EC3D8E552E7245DD82ED073
:1008D000070EDB50030A1CE0010A14E0030A07E0DC
:1008E0007BD9DBCFEEFF020EDBCFEDFF1FD0F5D8BB
:1008F000196A17AE02D0186819682CD8BCD819C06C
:10090000EEFF14D0EAD817BE186824D8B4D80ED099
:1009100063D9DBCFEFFF0AD07BD905E1151C03E1DA
:10092000F368F46810D0FCD801E3DB2A79D935EFFD
:1009300000F0010EDBCF14F0020EDBCF15F014C077
:10094000F3FF15C0F4FF3B0EE15C02E2E16AE55201
:10095000E16ECBD029D9020E9BEF05F061D90800DA
:10096000F550DF6E1200200EE66E080E0BEF06F05B
:10097000AFEC0FF0E552E552E552F3CF14F0F4CFAF
:1009800015F00001F31C1200146E156AD950010F06
:100990004DD91450EE261550ED221200185E000EAF
:1009A000195AF70E18C0DBFFF80E19C0DBFF18C08C
:1009B000E9FF19C0EAFF1200DBCFF4FFF350F45C4B
:1009C0001200DB50E76E040EE7CFDBFF12000A0EC9
:1009D000DBCF14F00B0EDBCF15F00C0EDBCF16F0D7
:1009E0000D0EDBCF17F01450151016101710120053
:1009F000130EEECFDBFF140EEDCFDBFF130EDBCFBC
:100A000014F0140EDBCF15F00001800E1514120047
:100A1000F70EDBCF18F0F80EDBCF19F01200050E41
:100A2000DB50E66ED950130F01D9E552E750EE6E58
:100A3000ED6A12000A0EDBCF06F00B0EDBCF07F0DB
:100A40000C0EDBCF08F00D0EDBCF09F01200DBCF70
:100A5000E6FF150EDBCFE6FF050EDB50E552E7247F
:100A6000E552E7241200DB50CED8010EF36E060EDD
:100A7000F3CFDBFF1200EE50EFCFEAFFE96E16C0B6
:100A8000EEFF17C0EEFF18C0EEFF1200D9CFE6FF51
:100A9000DACFE6FFE1CFD9FFE2CFDAFF1200DFCFF6
:100AA000E6FFE66A24EC11F0E552E552F35012003D
:100AB000E76E080EE7CFDBFF1200EECF14F0EECFAB
:100AC00015F0EFCF16F0176A1200050EDBCF14F009
:100AD000150EDB50D88014541200010EDBCF16F037
:100AE000020EDBCF17F0186A1200E552E5CFDAFFED
:100AF000E7CFD9FF12000A0E14C0DBFF0B0E15C0A2
:100B0000DBFF1200D9500A0F16EF06F0F36E070E46
:100B1000F3CFDBFF1200EECF14F0EFCF15F0120091
:100B2000010EDB2A020E1200FC0EDBCFE6FFFD0EEB
:100B3000DBCFE6FF1200145E000E155AF70E14C04C
:100B4000DBFFF80E15C0DBFF14C0E9FF15C0EAFF9C
:100B50001200DA20EA6EEF2AEECFF6FF000EEF2247
:100B6000EECFF7FFEF22EECFF8FF1200040EDBCF3F
:100B7000E6FF130EDB50E552E75C9ADFDB5004DF43
:100B8000060EDB501200090EDB500A0DF350DF2475
:100B9000D00FE76E090EE7CFDBFFAEEF04F0DB50BE
:100BA000F36E050EDCEF04F0F70EDBCF14F0F80E59
:100BB000DBCF15F01200DFCFE6FFB8EF04F028DF3F
:100BC000030EECDE5DEF05F00AEC00F0E552E552B5
:100BD000E552E55200091200BDDEEE50EFCFEAFF0C
:100BE000E96E010E1200130EDB50F36E040EDCEF03
:100BF00004F0040EDB50F36E090EDCEF04F0DBCFE3
:100C0000E6FFB8EF04F0E76E050EE7CFDBFF12005A
:100C10008BDFDBEF05F0DBCFE6FF86DFE4EF05F0EF
:100C2000D950F90FE96EFF0EA9EF05F0E96E000E3D
:060C3000DA20EA6E12005A
:0A0C3600D9CFE6FFE1CFD9FFFE0E93
:100C4000DB44010BE8B0838EE8A0839E060E146E91
:100C5000FE0EDB5014C0E7FFE75204E0E8427F0BD2
:100C6000E706FCE1E8B0838CE8A0839CFE0EDB5035
:100C7000E00BE838E840E8B0838AE8A0839AFE0EEB
:100C8000DB380F0BE8B08388E8A0839884828492D5
:100C9000FE0EDB40E840E8401F0BE8B0838EE8A082
:100CA000839EFE0EDB40E8403F0BE8B0838CE8A05B
:100CB000839CFE0EDB407F0BE8B0838AE8A0839A1A
:100CC000FE0EDB50E8B08388E8A08398848284928B
:100CD000E552E7CFD9FF1200D9CFE6FFE1CFD9FF28
:100CE0008490FE0EDB50E8B08480E8A08490020E71
:100CF000E66E72EC11F0E5528492FD0EDBCFE6FF5A
:100D00009ADFE552E552E7CFD9FF1200D9CFE6FFCF
:100D1000E1CFD9FFFD0EDBCFF6FFFE0EDBCFF7FFF5
:100D20000800F55014E0FD0EDBCFF6FFFE0EDBCF22
:100D3000F7FF0800F550E66E010EE66ECDDFE552D6
:100D4000E552FD0EDB2AFE0E01E3DB2AE3D7E55276
:100D5000E7CFD9FF1200D9CFE6FFE1CFD9FFE652A6
:100D6000100EDF6EDF50DF06000913E0FD0EDBCF53
:100D7000E9FFFE0EDBCFEAFFEF50E66E010EE66EF6
:100D8000ABDFE552E552FD0EDB2AFE0E01E3DB2A66
:100D9000E9D7E552E552E7CFD9FF1200D9CFE6FFF8
:100DA000E1CFD9FFFE0EDB50040A25E0070A19E067
:100DB000010A0DE0030A01E028D0FD0EDB50800F90
:100DC000FF0FE66EE66A88DFE552E5521ED0FD0EA3
:100DD000DB50C00FFF0FE66EE66A7EDFE552E5529C
:100DE00014D0FD0EDB50940FFF0FE66EE66A74DF41
:100DF000E552E5520AD0FD0EDB50D40FFF0FE66E30
:100E0000E66A6ADFE552E55200D0E552E7CFD9FF46
:100E10001200D9CFE6FFE1CFD9FFE6529690969225
:100E20009598959A959C959E849284908398839AA0
:100E3000839C839E030EE66EE0EC10F0E552010EFB
:100E4000DF6EDFCF14F0030EE76E1418E8AE02D0A9
:100E5000143403D0E750D88014540BE3030EE66E2D
:100E6000EADEE552010EE66EE0EC10F0E552DF2A14
:100E7000E8D7020EE66EDFDEE552280EE66EE66A81
:100E80002BDFE552E5520C0EE66EE66A25DFE552F1
:100E9000E552040EE66E36EC11F0E552010EE66EF8
:100EA000E66A1ADFE552E552060EE66EE66A14DFE0
:100EB000E552E552010EE66EE0EC10F0E552E55227
:100EC000E552E7CFD9FF12000C6A0D6A800E0E6E54
:100ED0003F0E0F6E56C107F057C108F058C109F018
:100EE00059C10AF0F9EC0DF0010A07E10101566B56
:100EF000576B800E586F3F0E596F0C6A0D6AC60E05
:100F00000E6E420E0F6E56C107F057C108F058C161
:100F100009F059C10AF0F0EC0DF0010A07E10101F6
:100F2000566B576BC60E586F420E596F146A156A8E
:100F3000166A400E176E56C10CF057C10DF058C11D
:100F40000EF059C10FF014C007F015C008F016C01C
:100F500009F017C00AF007EC0DF007C04EF108C009
:100F60004FF109C050F10AC051F1146A156A480ED8
:100F7000166E430E176E4EC10CF04FC10DF050C1EE
:100F80000EF051C10FF014C007F015C008F016C0E4
:100F900009F017C00AF01DEC0CF007C052F108C0B0
:100FA00053F109C054F10AC055F182824EC107F0D5
:100FB0004FC108F050C109F051C10AF09AEC0DF090
:100FC0000950E66EE0EC10F0E552829252C107F053
:100FD00053C108F054C109F055C10AF09AEC0DF064
:100FE0000950E66EE0EC10F0E5521200FD0EE66EE0
:100FF000040EE66E950EE66E29EC10F0E552E55211
:10100000E552936894949492928092829286010120
:101010003C6B3D6B3E6B400E3F6FCD0E426FCC0E76
:10102000436F4C0E446F3E0E456F486B496B4A6BE5
:101030004B6BEFDE0101846B856B866B876B7C6B82
:101040007D6B81B204D001017C2B000E7D23010158
:101050007D3504E27C510208000E7D5502E27C6B76
:101060007D6B9F0EE66EF7EC10F0E552280EE66EF3
:10107000E0EC10F0E55297EC11F092EC11F0000961
:1010800001E0FBD780EC11F0F3CF14F0F4CF15F0B2
:1010900014C008F015C009F0EFEC0BF007C000F128
:1010A00008C001F109C002F10AC003F10C6A0D6A1F
:1010B000FA0E0E6E430E0F6E00C107F001C108F06C
:1010C00002C109F003C10AF007EC0DF007C014F0EB
:1010D00008C015F009C016F00AC017F00C6AC00E5F
:1010E0000D6E7F0E0E6E440E0F6E14C007F015C00D
:1010F00008F016C009F017C00AF0B4EC0CF007C0F5
:101100008CF108C08DF109C08EF10AC08FF18CC13D
:1011100007F08DC108F08EC109F08FC10AF0C1EC53
:101120000DF008C07EF109C07FF1870EE66EF7EC86
:1011300010F0E552280EE66EE0EC10F0E55297EC68
:1011400011F092EC11F0000901E0FBD780EC11F0F6
:10115000F3CF38F1F4CF39F101013A6B3B6B39AF82
:1011600002D03A693B6938C106F039C107F03AC18B
:1011700008F03BC109F0640E0B6E0C6A0D6A0E6A32
:10118000F1EC0FF002C006F003C007F004C008F055
:1011900005C009F00B68030E0C6E0D6A0E6ABCECFC
:1011A00010F002EC0CF007C05CF108C05DF109C062
:1011B0005EF10AC05FF18150010B08E10101985115
:1011C000991104E1010E986F996B0BD08150010BBE
:1011D00008E10101010E981901E1995102E1986BB2
:1011E000996B98C118F099C119F0050E1902F3CF47
:1011F00019F01802F3CF18F0F450192618C008F0AF
:1012000019C009F0EFEC0BF007C014F008C015F09E
:1012100009C016F00AC017F014C00CF015C00DF08C
:1012200016C00EF017C00FF05CC107F05DC108F0EA
:101230005EC109F05FC10AF01EEC0CF007C05CF162
:1012400008C05DF109C05EF10AC05FF15CC107F042
:101250005DC108F05EC109F05FC10AF0C1EC0DF09C
:1012600008C060F109C061F190C194F191C195F19C
:1012700092C196F193C197F18CC190F18DC191F11A
:101280008EC192F18FC193F194C10CF095C10DF014
:1012900096C10EF097C10FF08CC107F08DC108F018
:1012A0008EC109F08FC10AF01DEC0CF007C014F0DC
:1012B00008C015F009C016F00AC017F048C10CF0BC
:1012C00049C10DF04AC10EF04BC10FF014C007F038
:1012D00015C008F016C009F017C00AF007EC0DF0B1
:1012E00007C070F108C071F109C072F10AC073F152
:1012F00070C107F071C108F072C109F073C10AF042
:10130000C1EC0DF008C074F109C075F18CC10CF08E
:101310008DC10DF08EC10EF08FC10FF05CC107F0D2
:101320005DC108F05EC109F05FC10AF01DEC0CF070
:1013300007C062F108C063F109C064F10AC065F139
:1013400062C107F063C108F064C109F065C10AF029
:10135000C1EC0DF008C066F109C067F162C10CF084
:1013600063C10DF064C10EF065C10FF03CC107F020
:101370003DC108F03EC109F03FC10AF007EC0DF095
:1013800007C06AF108C06BF109C06CF10AC06DF1C9
:101390006AC107F06BC108F06CC109F06DC10AF0B9
:1013A000C1EC0DF008C06EF109C06FF162C10CF024
:1013B00063C10DF064C10EF065C10FF088C107F084
:1013C00089C108F08AC109F08BC10AF01EEC0CF04B
:1013D00007C088F108C089F109C08AF10AC08BF101
:1013E0000C6A0D6AC80E0E6E420E0F6E88C107F0B1
:1013F00089C108F08AC109F08BC10AF0F0EC0DF048
:10140000010A07E10101886B896BC80E8A6F420EE1
:101410008B6F0C6A0D6AA00E0E6EC10E0F6E88C126
:1014200007F089C108F08AC109F08BC10AF0F9EC14
:101430000DF0010A07E10101886B896BA00E8A6F2C
:10144000C10E8B6F88C10CF089C10DF08AC10EF0FE
:101450008BC10FF042C107F043C108F044C109F04D
:1014600045C10AF007EC0DF007C076F108C077F12E
:1014700009C078F10AC079F176C107F077C108F0A8
:1014800078C109F079C10AF0C1EC0DF008C07AF119
:1014900009C07BF176C10CF077C10DF078C10EF078
:1014A00079C10FF06AC107F06BC108F06CC109F097
:1014B0006DC10AF01EEC0CF007C014F008C015F066
:1014C00009C016F00AC017F070C10CF071C10DF020
:1014D00072C10EF073C10FF014C007F015C008F010
:1014E00016C009F017C00AF01EEC0CF007C056F148
:1014F00008C057F109C058F10AC059F156C107F0A8
:1015000057C108F058C109F059C10AF0C1EC0DF0FB
:1015100008C05AF109C05BF1D7DC8150040B12E01E
:101520000C6A0D6AA00E0E6EC00E0F6E62C107F03F
:1015300063C108F064C109F065C10AF0F9EC0DF06F
:10154000010A02E1828401D08294020E01017C1919
:1015500001E17D5101E1C2D0010E7C1901E17D5113
:101560005FE07C5101E17D5101E035D17EC1E6FFB4
:101570007FC1E6FF60C1E6FF61C1E6FF660E146E43
:10158000210E156E166A14C0E6FF15C0E6FF16C0E0
:10159000E6FF080EE66E010EE66E0AEC0FF0176E1F
:1015A000090EE15E1750010EE66EE66ECEEC06F017
:1015B000E552E552080EE66E010EE66EABEC06F063
:1015C000E552E5525AC1E6FF5BC1E6FF66C1E6FFA0
:1015D00067C1E6FF510E146E210E156E166A14C017
:1015E000E6FF15C0E6FF16C0E6FF180EE66E010E18
:1015F000E66E0AEC0FF0176E090EE15E1750010E51
:10160000E66E020EE66ECEEC06F0E552E552180EDE
:10161000E66E010EE66EABEC06F0E552E552DBD06D
:1016200074C1E6FF75C1E6FF7AC1E6FF7BC1E6FF44
:101630006EC1E6FF6FC1E6FF3C0E146E210E156E03
:10164000166A14C0E6FF15C0E6FF16C0E6FF080ED6
:10165000E66E010EE66E0AEC0FF0176E0B0EE15E01
:101660001750010EE66EE66ECEEC06F0E552E5523E
:10167000080EE66E010EE66EABEC06F0E552E552A2
:101680005AC1E6FF5BC1E6FF66C1E6FF67C1E6FF40
:10169000510E146E210E156E166A14C0E6FF15C0A9
:1016A000E6FF16C0E6FF180EE66E010EE66E0AECC7
:1016B0000FF0176E090EE15E1750010EE66E020E76
:1016C000E66ECEEC06F0E552E552180EE66E010E1F
:1016D000E66EABEC06F0E552E5527DD07EC1E6FF4A
:1016E0007FC1E6FF60C1E6FF61C1E6FF660E146ED2
:1016F000210E156E166A14C0E6FF15C0E6FF16C06F
:10170000E6FF080EE66E010EE66E0AEC0FF0176EAD
:10171000090EE15E1750010EE66EE66ECEEC06F0A5
:10172000E552E552080EE66E010EE66EABEC06F0F1
:10173000E552E552010160515A5D166E5B516155EB
:10174000176E16C008F017C009F060C10DF061C136
:101750000EF074EC0DF008C014F009C015F014C0C0
:10176000E6FF15C0E6FF66C108F067C109F060C179
:101770000DF061C10EF074EC0DF008C018F009C056
:1017800019F018C0E6FF19C0E6FF260E1A6E210EEA
:101790001B6E1C6A1AC0E6FF1BC0E6FF1CC0E6FFFA
:1017A000180EE66E010EE66E0AEC0FF01D6E090EC5
:1017B000E15E1D50010EE66E020EE66ECEEC06F006
:1017C000E552E552180EE66E010EE66EABEC06F041
:0A17D000E552E55200D035D41200B6
:0617DA00019E08D0019EF3
:1017E00009AE05D0086C091EE86A0922018E09C0FD
:1017F00003F008C002F0136A126A8E0E046E056AC6
:1018000073EF0EF0019E0CD0019E09AE09D0066C5C
:10181000071E081E091EE86A072208220922018EF7
:1018200009C003F008C002F007C013F006C012F0B0
:101830009E0E046E056A73EF0EF00F7E016AAFEC28
:101840000EF0C7EC0EF001B657EF0EF001A20AD071
:1018500001AA03D001BE57EF0EF001A463EF0EF012
:1018600060EF0EF001AA05D001AC63EF0EF060EF5F
:101870000EF001A00AD001A808D001BE04D001A436
:1018800002D06CEF0EF070EF0EF0126A056A0F5086
:101890000A5C116E10E307C013F008C002F009C023
:1018A00003F00AC010F00CC007F00DC008F00EC025
:1018B00009F0013A09D00CC013F00DC002F00EC0BF
:1018C00003F00FC010F0116C019E01BC018E10C01E
:1018D00004F001B09FEF0EF01A0E11609FEF0EF0B2
:1018E000046A0A6A01A408D0076C081E091E0A1EB1
:1018F000E86A082209220A2201AC08D0136C021EF1
:10190000031E041EE86A022203220422066A115200
:1019100007E00A340932083207320632112EF9D7AD
:101920000750132608500222095003220A500422AD
:1019300006C012F0019E04AE0BD0126C131E021EE4
:10194000031E041EE86A1322022203220422018ECF
:1019500004A006D0D8800332023213321232102A89
:1019600010C004F073EF0EF0016AAFEC0EF0C7EC9C
:101970000EF001B657EF0EF001A205D001BA57EFF5
:101980000EF05EEF0EF001BA6AEF0EF001A005D086
:1019900001B857EF0EF06AEF0EF001B85EEF0EF0EF
:1019A000056A7F0E0A24046EE86A05220F50045E61
:1019B000E86A055A1A0E106E0A6A126A136A026AF7
:1019C000036A0C50075E0D50085A0E50095A000E5B
:1019D0000A5A09E70C5007260D5008220E5009221A
:1019E000000E0A2201D0128AD8900736083609362E
:1019F0000A36D8901236133602360336102EE1D747
:101A0000095008100710D8A4128A73EF0EF0016A6B
:101A1000AFEC0EF0C7EC0EF001B657EF0EF001A2DE
:101A200005D001B857EF0EF05EEF0EF001AA05D019
:101A300001B057EF0EF05EEF0EF001B002D001A83A
:101A400002D06AEF0EF0056A0F500A24046EE86AAD
:101A500005227E0E045EE86A055A126A136A026A5B
:101A6000036A0E500902F4CF03F0F3CF02F00D50D9
:101A70000902F3501326F4500222000E03220E50E6
:101A80000802F3501326F4500222000E03220C50D9
:101A90000902F3501226F4501322000E02220322F0
:101AA0000D500802F3501226F4501322000E0222A9
:101AB00003220E500702F3501226F4501322000E98
:101AC000022203220C500802F4501226000E1322A8
:101AD000022203220D500702F4501226000E132298
:101AE0000222032273EF0EF0006A0EAE7DEF0DF0BE
:101AF0000D6C0E1EE86A0E22001E09AE85EF0DF079
:101B0000086C091EE86A0922001E0EEC11F009BEDD
:101B100095EF0DF000AE000C086C091EE86A092272
:101B2000046C051EE86A0522000C00BE8CEF0DF067
:101B30000188FF0C016AAFEC0EF001B6A4EF0DF0C6
:101B400001A20AD001B403D07F0E096E19D0800E15
:101B5000096E16D0096A14D001B0FCD7870E0A604E
:101B6000F1D77E0E0A64F6D7860E0A5C04E0D890A0
:101B700009320A2AF9D701A403D0096C09AEEAD7C1
:101B80001200016AAFEC0EF001B6CBEF0DF001A22E
:101B90000ED001B405D07F0E096EFF0E086E1FD067
:101BA000800E096E086A1BD0096A086A18D001B055
:101BB000FBD78F0E0A60EDD77E0E0A64F5D78E0E26
:101BC0000A5C05E0D890093208320A2AF8D701A445
:101BD00006D0086C091EE86A092209AEE5D7120092
:101BE00002EC0EF001B6000C01B0000C01B4000CC8
:101BF000010C02EC0EF001B6000C01B0000C01A4C7
:101C0000000C010C016AAFEC0EF0C7EC0EF001B64F
:101C1000120001AE08D001A004D001A802D00180BA
:101C20001200019012000F500A5C0BE10E50095C8B
:101C300008E10D50085C05E10C50075C02E10180F1
:101C40001200D8A002D0018E10D00A500FC00AF0A6
:101C50000F6E09500EC009F00E6E08500DC008F04E
:101C60000D6E07500CC007F00C6E0F500A5C10E0B0
:101C7000FF0F09E0019001B403D001AE018412000E
:101C800001AE019412000F2AD8900E320D320C32A0
:101C90000C50075E0D50085A0E50095A09BEEAD77B
:101CA000D8900736083609360A2EF8D7C8D77F0EDF
:101CB0000A6EFF0E096E086E076E12007F0E01BEDF
:101CC000FF0E0A6E02D07F0E0A6E800E096E086A41
:101CD000076AF3D701AE04D0800E0A6E096AF7D7FF
:101CE0000A6A096AF4D70350021013101210F8E0C0
:101CF00005BEF0D703BE0CD004500510EBE0D89021
:101D000012361336023603360406D8A00506F2D77B
:101D10000550D4E10428D2E012AE11D07F0E121487
:101D200002E113A00CD0132AE86A0222032207E37F
:101D3000D880033202321332042A0428BFE0045050
:101D4000C9E013C007F002C008F00334096E043084
:101D50000A6E09320A9E01BE0A8E5DEF0EF0093648
:101D60000A3602E30184017E06E101800A6A096AFB
:101D7000086A076A12000A2803E0D88009321200B4
:101D8000D890093202E101821200018612000E365B
:101D90000F3602E3018C017E06E101880F6A0E6AAC
:101DA0000D6A0C6A12000F2803E0D8800E32120070
:101DB000D8900E32EAE1018A120009C013F008C07F
:101DC00012F008500D02F4CF07F0F3CF06F00950DF
:101DD0000E02F4CF09F0F3CF08F00D02F3500726FE
:101DE000F4500822E86A092212500E02F350072626
:101DF000F4500822E86A09220EAE03EF0FF01250E9
:101E0000085E1350095A13AE000C0D50085E0E50B8
:041E1000095A000C5F
:0C1E1400D9CFE6FFDACFE6FFE1CFD9FF1F
:101E2000E2CFDAFFE652E652E652E652D950F90F17
:101E3000146EFF0EDA20156E020E14C0DBFF030EC7
:101E400015C0DBFF020EDBCFE6FF030EDBCFE6FFA4
:101E5000F90EDBCFE6FFFA0EDBCFE6FFFB0EDBCFA2
:101E6000E6FFD950FC0FE66EFF0EDA20E66E20EC9E
:101E700000F0146E070EE15C02E2E16AE552E16EE9
:101E80001450F3CFDEFFF4CFDDFFFC0EDBCFE9FF14
:101E9000FD0EDBCFEAFFEF6ADECF14F0DDCF15F0E9
:101EA00014C0F3FF15C0F4FF040EE15C02E2E16A26
:101EB000E552E16EE552E5CFDAFFE7CFD9FF120038
:101EC000060EF66E000EF76E000EF86E01010900A8
:101ED000F5509F6F0900F550A06F03E19F6701D097
:101EE0003DD00900F5509A6F0900F5509B6F09002D
:101EF000F5509C6F09000900F550E96E0900F55096
:101F0000EA6E090009000900F5509D6F0900F550BF
:101F10009E6F09000900F6CFA1F1F7CFA2F1F8CF2B
:101F2000A3F19AC1F6FF9BC1F7FF9CC1F8FF010125
:101F30009D5302E19E5307E00900F550EE6E9D07A8
:101F4000F8E29E07F9D7A1C1F6FFA2C1F7FFA3C12E
:0E1F5000F8FF01019F07000EA05BBFD7120033
:021F5E00D9CFD9
:101F6000E6FFDACFE6FFE1CFD9FFE2CFDAFFFB0EE3
:101F7000DBCF14F0FC0EDBCF15F00001800E151442
:101F80001AE1FB0EDBCFE9FFFC0EDBCFEAFFEECF61
:101F9000F3FFEDCFF4FFEE2A000EEF22F3CFE9FFBF
:101FA000F4CFEAFFFD0EDBCFEFFFEF50156AF36EC3
:101FB00015C0F4FF10D0FB0EDB50FE0806E1FD0E4D
:101FC000DBCFE6FF64EC11F005D0FD0EDBCFE6FFC2
:101FD00099EC11F0E552E552E5CFDAFFE7CFD9FFF2
:021FE0001200ED
:0E1FE20006500B02F3CF02F0F4CF03F00C0216
:101FF000F3500326000EF420046E06500D02F35039
:102000000426000EF420056E06500E02F35005263D
:1020100007500B02F3500326F4500422000E052251
:1020200007500C02F3500426F450052207500D020D
:10203000F350052608500B02F3500426F4500522F5
:1020400008500C02F350052609500B02F3500526E8
:0220500012007C
:0E205200D9CFE6FFDACFE6FFE1CFD9FFE2CF2C
:10206000DAFFC26AC06AFC0EDB407F0B3C0BC26E1B
:10207000FC0EDB38F00B300B146EFB0EDB500F0B3D
:102080001410C16EFD0EDB50040DF350380B156EAD
:10209000FD0EDB380F0B070B146EFD0EDB50800BB3
:1020A00014101510C06EFC0EDBAE03D09E9C9D8CF0
:1020B000F28CC280E552E5CFDAFFE7CFD9FF1200FC
:1020C000FE0EE3CFE9FFFF0EE3CFEAFFF36AF46A07
:1020D000EE5203E0F34AF42AFBD71200FF0EE3CFDF
:1020E000F8FFE552FF0EE3CFF7FFE552FF0EE3CF17
:1020F000F6FFE552E66AE66AE66A0900F55209E08B
:10210000FD0EE32A05E1FE0EE32A02E1FF0EE32ABB
:10211000F4D7FD0EE3CF07F0FE0EE3CF08F0FF0E7D
:06212000E3CF09F01200FC
:0A2126006572723D253033692520F3
:10213000253B766D3D25303369202500503D253007
:10214000336920493D2530336920443D25303369CA
:10215000006572723D2530336920433B766D3D2525
:10216000303369204300733D2530336920432074A8
:082170003D25303369204300D6
:08217800056A046A036A026AA9
:10218000200EE76ED8900636073608360936023636
:102190000336043605360B50025C0C5003580D50C4
:1021A00004580E50055809E30B50025E0C50035AB8
:1021B0000D50045A0E50055A062AE72EE4D7120095
:1021C000FF0EE3501F6EEF0E01D0F30EE76EE72E09
:1021D000E7EF10F00C0E1E6EE76AE72EEDEF10F041
:0E21E0001E2EECEF10F01F2EE5EF10F0120097
:0221EE00D9CF47
:1021F000E6FFDACFE6FFE1CFD9FFE2CFDAFFC30E89
:10220000C214146EFD0EDB407F0B3C0B1410C26E2B
:0C221000E552E5CFDAFFE7CFD9FF12005E
:04221C00056A046AE1
:10222000100EE76ED89008360936043605360D5084
:10223000045C0E50055805E30D50045E0E50055A1F
:08224000082AE72EF0D7120076
:08224800F36AF46AFF0EE124C1
:10225000E96EFF0EE220EA6EED6607D02F0EEF6406
:0C22600004D03A0EEF6001D0F32A120007
:04226C00FF0EE3502E
:102270001F6E480E01D04C0EE76EE72EFED7E76AC0
:0C228000E72EFED71F2EF7D7000012003B
:04228C00000EF36EDF
:1022900000EE00F0060E01D81200EA6002D0EE6AED
:0C22A000FCD7F350E9601200EE6AFCD796
:0422AC0015EE00F03B
:1022B00025EE00F0F86A019C60EC0FF09AEC11F04A
:0822C000F6EC07F0FBD7120059
:0822C800FF0EE350ACBA04D094
:1022D000AF6AAB8EAC8A949CACA2FED7AD6EF36EA7
:0422E000F46A12008A
:0C22E400FF0EE3501F6E1B0E00D001D057
:1022F000200EE76EE72EFED71F2EFAD700D0120071
:10230000C450176E166AC3501610F36E17C0F4FF50
:022310001200B9
:0E231200303132333435363738396162636426
:03232000656600EF
:0A232400C250020B01E0010E12008E
:02232E00C28269
:02233000120099
:02233200120097
:02233400120095
:0A233600000000000000000000009D
:08234000000000000000000095
:020000040030CA
:0100010002FC
:010002000AF3
:010003001EDE
:010005008179
:010006008178
:00000001FF
